:020000040800F2
:10000000002000207D030008710100087B0100082A
:1000100000000000000000000000000000000000E0
:100020000000000000000000000000008301000844
:1000300000000000000000008D010008970100088A
:10004000CD030008CD030008CD030008CD03000850
:10005000CD030008CD030008CD030008CD03000840
:10006000CD030008CD030008CD030008CD03000830
:10007000CD030008CD030008CD030008CD03000820
:10008000CD030008CD030008CD030008CD03000810
:10009000CD030008CD030008CD030008CD03000800
:1000A000CD030008CD030008CD030008CD030008F0
:1000B000CD030008CD030008CD030008CD030008E0
:1000C00010B5064C2378002B07D1054B002B02D02E
:1000D000044800E000BF0123237010BD040000208D
:1000E0000000000018050008044B10B5002B03D0D9
:1000F0000349044800E000BF10BDC04600000000F6
:10010000080000201805000880B500AF0B4B9A6965
:100110000A4B08210A439A61094B1B68094A1A4095
:10012000074B8021C9010A431A60054B5A68044BEA
:1001300080218A435A60C046BD4680BD00100240FF
:10014000000C0140FF3FFFFF80B500AFFFF7DCFF71
:10015000064B5A69054B80214A405A61FA235B00DD
:10016000180000F0EFF8C046F2E7C046000C01406E
:1001700080B500AFC046BD4680BD80B500AFC0466B
:10018000FDE780B500AFC046BD4680BD80B500AF7D
:10019000C046BD4680BD80B500AFC046BD4680BDEF
:1001A00080B500AF184B1A68174B01210A431A603B
:1001B000154B5A68144B15490A405A60124B1A687D
:1001C000114B13490A401A600F4B1A680E4B114924
:1001D0000A401A600C4B5A680B4B0F490A405A6090
:1001E000094BE0229201DA62074BBF2212049A60A7
:1001F0000A4B1A68094B10210A431A6000F010F8E4
:10020000C046BD4680BDC046001002400000FF2130
:10021000FFFFF6FEFFFFBFFFFFFF00FE00200240D2
:1002200080B584B000AF0023BB600023FB60FB1DE2
:1002300000221A703E4B1A683D4B01210A431A6096
:100240003B4B1B6802221A40FB1D511E8A411A704B
:10025000FB680133FB60FB1D1B7801225340DBB2BE
:10026000002B04D0FA68A023DB009A42E8D1304B7F
:100270001B6802221A40FB1D511E8A411A70FB1D89
:100280001B7801225340DBB2002B01D0C046FDE7B2
:10029000284B1A68274B03218A431A60254B1A689A
:1002A000244B02210A431A60214A214B52685A60AA
:1002B0001F4B5A681E4B20490A405A601C4B5A6813
:1002C0001B4B1E490A405A60194B5B68BB60BB68F8
:1002D000C02292021343BB60154BBA685A60144B9C
:1002E0001A68134B802149040A431A60C046104B18
:1002F0001A6880239B041340F9D00D4B5A680C4BAD
:1003000007218A435A600A4B5A68094B02210A4363
:100310005A60C046064B5B68094A1A408023DB01DD
:100320009A42F7D1C046C046BD4604B080BDC04623
:100330000010024000200240FFFF3FFFFFFFC0FE11
:1003400008C0000080B584B000AF78600023FB6077
:1003500004E0C046C046FB680133FB607A681300C6
:100360005B019B1A9B009B18DB001A00FB689A42FA
:10037000EFD8C046C046BD4604B080BD0D48854696
:100380000D480E490E4A002302E0D458C4500433ED
:10039000C4188C42F9D30B4A0B4C002301E01360C4
:1003A0000432A242FBD3FFF7FBFE00F019F8FFF77F
:1003B000CBFEFEE70020002000000020040000200B
:1003C0003C05000804000020B8010020FEE7000002
:1003D00010B5010000230022002000F03DF810BD00
:1003E00070B50D4B0D4D5E1BB610AB4205D0002411
:1003F00008CD01349847A642FAD800F08DF8084B92
:10040000084D5E1BB610AB4205D0002408CD013468
:100410009847A642FAD870BD30050008300500089C
:10042000380500083005000870B5074C074D641BFF
:10043000A41005D0013CA300EB589847002CF9D13B
:1004400000F070F870BDC0463C0500083805000893
:100450007047C0467047C046F0B5D6464F46464640
:100460009846244BC0B5060018689A460F0091467E
:10047000FFF7EEFF204B1D68002D32D053466C680D
:1004800018681F2C30DC002E0CD1631C0234A40031
:100490006B606751FFF7DEFF0020E0BCBA46B14653
:1004A000A846F0BD49468822A300EB189950C42104
:1004B00049008C46AC446146873AA240096891469F
:1004C0001143624611608421424649005A50022E6F
:1004D000DBD129004A468D31FF310B6813430B6095
:1004E000D3E7064D1D60C9E7FFF7B4FF0120404286
:1004F000D3E7C04600000020B40100202400002003
:10050000034B10B5002B02D00248FFF761FF10BD6E
:100510000000000029040008F8B5C046F8BC08BC7B
:100520009E467047F8B5C046F8BC08BC9E4670476A
:0805300001050008E9000008C4
:04053800C1000008F6
:04053C00200000207B
:040000050800037D6F
:00000001FF
